:100000000C942A000C9447000C9447000C94470071
:100010000C9447000C9447000C9447000C94470044
:100020000C9447000C9447000C9447000C94470034
:100030000C9447000C9447000C9447000C94470024
:100040000C9447000C9447000C9447000C94470014
:100050000C94470011241FBECFE5D8E0DEBFCDBF12
:1000600010E0A0E6B0E0E4E7FBE002C005900D92EE
:10007000AE37B107D9F710E0AEE7B0E001C01D928E
:10008000AE37B107E1F70E941C030C94B8050C943D
:10009000000040E00E94530008950E94C2010895AC
:1000A0000E948B020895843409F471C0853448F4A9
:1000B000823499F1833408F04DC0813409F083C053
:1000C0000FC0823651F1833620F4813609F07BC0AF
:1000D00007C0833609F43EC0843609F074C057C0A7
:1000E000413069F42AB381E090E0AC0102C0440FD2
:1000F000551F6A95E2F7BA01622B6ABB08952AB3CD
:1001000081E090E0AC0102C0440F551F6A95E2F710
:10011000BA01609562236ABB0895413069F427B340
:1001200081E090E0AC0102C0440F551F6A95E2F7F0
:10013000BA01622B67BB089527B381E090E0AC0160
:1001400002C0440F551F6A95E2F7BA016095622319
:1001500067BB0895413069F424B381E090E0AC01BD
:1001600002C0440F551F6A95E2F7BA01622B64BBC7
:10017000089524B381E090E0AC0102C0440F551F04
:100180006A95E2F7BA016095622364BB0895413035
:1001900069F421B381E090E0AC0102C0440F551F27
:1001A0006A95E2F7BA01622B61BB089521B381E041
:1001B00090E0AC0102C0440F551F6A95E2F7BA0106
:1001C0006095622361BB0895843409F471C085345D
:1001D00048F4823499F1833408F04DC0813409F039
:1001E00083C00FC0823651F1833620F4813609F086
:1001F0007BC007C0833609F43EC0843609F074C062
:1002000057C0413069F42BB381E090E0AC0102C0EB
:10021000440F551F6A95E2F7BA01622B6BBB089534
:100220002BB381E090E0AC0102C0440F551F6A95EA
:10023000E2F7BA01609562236BBB0895413069F41F
:1002400028B381E090E0AC0102C0440F551F6A95CD
:10025000E2F7BA01622B68BB089528B381E090E011
:10026000AC0102C0440F551F6A95E2F7BA016095D0
:10027000622368BB0895413069F425B381E090E0C2
:10028000AC0102C0440F551F6A95E2F7BA01622B18
:1002900065BB089525B381E090E0AC0102C0440F36
:1002A000551F6A95E2F7BA016095622365BB089510
:1002B000413069F422B381E090E0AC0102C0440F08
:1002C000551F6A95E2F7BA01622B62BB089522B30B
:1002D00081E090E0AC0102C0440F551F6A95E2F73F
:1002E000BA016095622362BB0895843409F43DC06D
:1002F000853440F48234F9F0833450F5813409F0C8
:1003000040C00CC08236B9F0833618F48136C9F586
:1003100005C08336E9F08436A1F527C02BB381E010
:1003200090E0AC0102C0440F551F6A95E2F7BA0194
:1003300062276BBB089528B381E090E0AC0102C056
:10034000440F551F6A95E2F7BA01622768BB08950A
:1003500025B381E090E0AC0102C0440F551F6A95BF
:10036000E2F7BA01622765BB089522B381E090E00D
:10037000AC0102C0440F551F6A95E2F7BA0162272B
:1003800062BB08958434B1F1853438F48234E1F0ED
:10039000833428F58134C1F50CC08236A9F0833648
:1003A00018F4813689F505C08336C9F0843661F5C5
:1003B00021C029B330E0C90102C0959587956A959F
:1003C000E2F7982F917020C026B330E0C90102C037
:1003D000959587956A95E2F7982F917015C023B38C
:1003E00030E0C90102C0959587956A95E2F7982F8C
:1003F00091700AC020B330E0C90102C0959587957D
:100400006A95E2F7982F9170892F08958434D9F076
:10041000853438F4823499F0833498F48134A1F42B
:100420000CC0823661F0833618F4813669F405C059
:10043000833639F0843641F406C06ABB089567BB41
:10044000089564BB089561BB08958434D9F0853460
:1004500038F4823499F0833498F48134A1F40CC0D8
:10046000823661F0833618F4813669F405C083362C
:1004700039F0843641F406C06BBB089568BB08951B
:1004800065BB089562BB0895843409F1853438F45E
:100490008234A9F08334B8F48134E1F40CC082369C
:1004A00071F0833618F48136A9F405C0833659F00B
:1004B000843681F40CC08BB380958BBB089588B3D0
:1004C000809588BB089585B3809585BB089582B3D8
:1004D000809582BB08958434D9F0853438F4823411
:1004E00099F0833498F48134A1F40CC0823661F021
:1004F000833618F4813669F405C0833639F08436C2
:1005000041F406C099B305C096B303C093B301C0CC
:1005100090B3892F0895843409F471C0853448F468
:10052000823499F1833408F04DC0813409F083C0DE
:100530000FC0823651F1833620F4813609F07BC03A
:1005400007C0833609F43EC0843609F074C057C032
:10055000413069F42BB381E090E0AC0102C0440F5C
:10056000551F6A95E2F7BA01622B6BBB08952BB356
:1005700081E090E0AC0102C0440F551F6A95E2F79C
:10058000BA01609562236BBB0895413069F428B3CA
:1005900081E090E0AC0102C0440F551F6A95E2F77C
:1005A000BA01622B68BB089528B381E090E0AC01EA
:1005B00002C0440F551F6A95E2F7BA0160956223A5
:1005C00068BB0895413069F425B381E090E0AC0147
:1005D00002C0440F551F6A95E2F7BA01622B65BB52
:1005E000089525B381E090E0AC0102C0440F551F8F
:1005F0006A95E2F7BA016095622365BB08954130C0
:1006000069F422B381E090E0AC0102C0440F551FB1
:100610006A95E2F7BA01622B62BB089522B381E0CA
:1006200090E0AC0102C0440F551F6A95E2F7BA0191
:100630006095622362BB08950E947B0481E460E0C0
:100640000E94490081E461E00E94490081E462E087
:100650000E94490081E463E00E94490081E464E073
:100660000E94490081E460E041E00E94500081E482
:1006700061E041E00E94500081E462E041E00E94BC
:10068000500081E463E041E00E94500081E464E0B6
:1006900041E00E94500081E065E00E94310580E663
:1006A00090E00E944E058FEF93EDA0E381509040C3
:1006B000A040E1F700C000000E942D0588E690E010
:1006C0000E944E0581E069E00E9431058CE690E0D1
:1006D0000E944E0582E061E00E94310580E790E0D3
:1006E0000E944E0582E069E00E94310584E790E0B7
:1006F0000E944E0588249924EE24FF2400E010E097
:10070000C0E0D0E00F2EF8E7CF2EF0E0DF2EF02D86
:10071000AA24BB2481E460E00E944D00882379F480
:10072000219681E063E00E943105CE010E945D05C3
:1007300081E460E00E944D008823D1F3EBCF81E497
:1007400061E00E944D00882381F40F5F1F4F81E01C
:100750006BE00E943105C8010E945D0581E461E003
:100760000E944D008823D1F3D5CF81E462E00E943E
:100770004D00882389F40894E11CF11C82E063E0B9
:100780000E943105C7010E945D0581E462E00E947C
:100790004D008823D1F3BECF81E463E00E944D0079
:1007A000882389F40894811C911C82E06BE00E94EC
:1007B0003105C4010E945D0581E463E00E944D00A3
:1007C0008823D1F3A7CF81E464E00E944D00882301
:1007D00009F0A0CF81E063E00E943105C6010E94CC
:1007E0004E0581E06BE00E943105C6010E944E0576
:1007F00082E063E00E943105C6010E944E0582E05E
:100800006BE00E943105C6010E944E0581E464E060
:100810000E944D008823D1F3450175018501E50152
:1008200079CF83E467E041E00E94E4008FE99FE034
:100830000197F1F700C0000083E467E040E00E9408
:10084000E4008FE99FE00197F1F700C000000895F0
:10085000CF93C82F482F42954F70417083E460E0DA
:100860000E94E4004C2F429546954770417083E406
:1008700061E00E94E4004C2F4295469546954370F6
:10088000417083E462E00E94E4004C2F441F44273F
:10089000441F83E463E00E94E40083E465E040E0F9
:1008A0000E94E4000E9411044C2F417083E460E038
:1008B0000E94E4004C2F4695417083E461E00E9461
:1008C000E4004C2F46954695417083E462E00E9417
:1008D000E400C695C695C6954C2F417083E463E04D
:1008E0000E94E40083E465E040E00E94E4000E948E
:1008F0001104CF9108958FE799EAA3E081509040C9
:10090000A040E1F700C0000083E460E041E00E9405
:10091000530083E461E041E00E94530083E462E01D
:1009200041E00E94530083E463E041E00E945300F1
:1009300083E465E041E00E94530083E466E041E027
:100940000E94530083E467E041E00E94530083E487
:1009500066E040E00E94E40082E00E942804AFE1EB
:10096000BEE41197F1F700C0000088E20E9428045D
:100970008FEC97E00197F1F700C000008CE00E9437
:100980002804AFECB7E01197F1F700C0000081E058
:100990000E9428048FE19EE40197F1F700C0000057
:1009A00086E00E942804AFECB7E01197F1F700C091
:1009B00000000895CF93C82F482F42954F70417083
:1009C00083E460E00E94E4004C2F42954695477016
:1009D000417083E461E00E94E4004C2F429546950B
:1009E00046954370417083E462E00E94E4004C2F1E
:1009F000441F4427441F83E463E00E94E40083E42F
:100A000065E041E00E94E4000E9411044C2F417017
:100A100083E460E00E94E4004C2F4695417083E43B
:100A200061E00E94E4004C2F46954695417083E4B6
:100A300062E00E94E400C695C695C6954C2F4170B1
:100A400083E463E00E94E40083E465E041E00E9407
:100A5000E4000E941104CF91089581E00E942804CF
:100A60000895833080F4613180F4662381F0882317
:100A700081F0813019F4962F91580CC0823051F4D6
:100A8000962F915407C090E805C090E803C090E805
:100A900001C090E8892F0E9428040895CF93DF9326
:100AA000EC018881882331F021960E94DA04899133
:100AB0008823D9F7DF91CF9108951F93CF93DF93C8
:100AC000CDB7DEB728970FB6F894DEBF0FBECDBF07
:100AD0008A30910518F0009729F419C0805D0E94B2
:100AE000DA0428C02AE030E0E12FFF27E7FDF09587
:100AF00041E050E04C0F5D1FE40FF51FB9010E946B
:100B0000A4058083862F972F1F5F009769F7111622
:100B10008CF41150E12FFF27E7FDF09581E090E084
:100B20008C0F9D1FE80FF91F8081805D0E94DA0401
:100B3000112379F728960FB6F894DEBF0FBECDBF0C
:100B4000DF91CF911F910895AA1BBB1B51E107C0F4
:100B5000AA1FBB1FA617B70710F0A61BB70B881F4D
:100B6000991F5A95A9F780959095BC01CD010895DC
:040B7000F894FFCF27
:100B740057656C636F6D6500413D3000423D300048
:0E0B8400433D3000443D300030202020200052
:00000001FF
